:100000000C942A000C943F000C943F000C943F0089
:100010000C943F000C943F000C943F000C943F0064
:100020000C943F000C943F000C943F000C943F0054
:100030000C943F000C943F000C943F000C943F0044
:100040000C943F000C943F000C943F000C943F0034
:100050000C943F0011241FBECFE5D8E0DEBFCDBF1A
:1000600010E0A0E6B0E0EAECF7E002C005900D92E7
:10007000A836B107D9F70E94AA020C94E3030C94A6
:100080000000CF93DF93CDB7DEB72F970FB6F8946C
:10009000DEBF0FBECDBF8F8788E390E0FC012081DB
:1000A00088E390E02C7FFC0120838BE390E02F8598
:1000B000FC01208388E390E0FC01208188E390E04C
:1000C0002460FC01208380E090E0A0E0B0E489831C
:1000D0009A83AB83BC8320E030E04AEF54E469812B
:1000E0007A818B819C810E944E03DC01CB018D8340
:1000F0009E83AF83B88720E030E040E85FE36D8106
:100100007E818F8198850E94C80288232CF481E02B
:1001100090E09A8789873FC020E03FEF4FE757E4A0
:100120006D817E818F8198850E94490318164CF558
:1001300020E030E040E251E469817A818B819C814A
:100140000E944E03DC01CB01BC01CD010E94CD0217
:10015000DC01CB019A8789870FC088EC90E09C87EF
:100160008B878B859C850197F1F79C878B87898589
:100170009A8501979A87898789859A85892B69F756
:1001800014C06D817E818F8198850E94CD02DC0133
:10019000CB019A87898789859A859E878D878D85EA
:1001A0009E850197F1F79E878D8788E390E0FC019B
:1001B000208188E390E02B7FFC01208300002F96B4
:1001C0000FB6F894DEBF0FBECDBFDF91CF9108957B
:1001D000CF93DF93CDB7DEB72F970FB6F894DEBF7E
:1001E0000FBECDBF8F8788E390E0FC01208188E3BC
:1001F00090E02160FC01208388E390E0FC012081F5
:1002000088E390E02D7FFC0120838BE390E02F8535
:10021000FC01208388E390E0FC01208188E390E0EA
:100220002460FC01208380E090E0A0E0B0E48983BA
:100230009A83AB83BC8320E030E04AEF54E46981C9
:100240007A818B819C810E944E03DC01CB018D83DE
:100250009E83AF83B88720E030E040E85FE36D81A4
:100260007E818F8198850E94C80288232CF481E0CA
:1002700090E09A8789873FC020E03FEF4FE757E43F
:100280006D817E818F8198850E94490318164CF5F7
:1002900020E030E040E251E469817A818B819C81E9
:1002A0000E944E03DC01CB01BC01CD010E94CD02B6
:1002B000DC01CB019A8789870FC088EC90E09C878E
:1002C0008B878B859C850197F1F79C878B87898528
:1002D0009A8501979A87898789859A85892B69F7F5
:1002E00014C06D817E818F8198850E94CD02DC01D2
:1002F000CB019A87898789859A859E878D878D8589
:100300009E850197F1F79E878D8788E390E0FC0139
:10031000208188E390E02B7FFC01208300002F9652
:100320000FB6F894DEBF0FBECDBFDF91CF91089519
:10033000CF93DF93CDB7DEB76C970FB6F894DEBFDF
:100340000FBECDBF87E390E0FC01208187E390E002
:100350002760FC0120838AE390E02FEFFC012083DB
:1003600080E090E0A0EAB1E48F87988BA98BBA8BEC
:1003700020E030E04AEF54E46F85788989899A89D2
:100380000E944E03DC01CB018B8B9C8BAD8BBE8B13
:1003900020E030E040E85FE36B897C898D899E89AD
:1003A0000E94C80288232CF481E090E0988F8F8B04
:1003B0003FC020E03FEF4FE757E46B897C898D8990
:1003C0009E890E94490318164CF520E030E040E277
:1003D00051E46F85788989899A890E944E03DC01EE
:1003E000CB01BC01CD010E94CD02DC01CB01988F75
:1003F0008F8B0FC088EC90E09A8F898F898D9A8DB2
:100400000197F1F79A8F898F8F89988D0197988F2F
:100410008F8B8F89988D892B69F714C06B897C89A4
:100420008D899E890E94CD02DC01CB01988F8F8B34
:100430008F89988D9C8F8B8F8B8D9C8D0197F1F779
:100440009C8F8B8F88E30E9441008CE00E944100CA
:1004500081E00E94410080E090E0A0E0B0E4898368
:100460009A83AB83BC8320E030E04AEF54E4698197
:100470007A818B819C810E944E03DC01CB018D83AC
:100480009E83AF83B88720E030E040E85FE36D8172
:100490007E818F8198850E94C80288232CF481E098
:1004A00090E09A8789873FC020E03FEF4FE757E40D
:1004B0006D817E818F8198850E94490318164CF5C5
:1004C00020E030E040E251E469817A818B819C81B7
:1004D0000E944E03DC01CB01BC01CD010E94CD0284
:1004E000DC01CB019A8789870FC088EC90E09C875C
:1004F0008B878B859C850197F1F79C878B878985F6
:100500009A8501979A87898789859A85892B69F7C2
:1005100014C06D817E818F8198850E94CD02DC019F
:10052000CB019A87898789859A859E878D878D8556
:100530009E850197F1F79E878D8786E00E94410096
:1005400000006C960FB6F894DEBF0FBECDBFDF91F2
:10055000CF910895CF93DF9300D0CDB7DEB70E943F
:10056000980180E690E09A8389830BC089819A8103
:100570009C012F5F3F4F3A832983FC0180810E94B9
:10058000E80089819A81FC018081882379F7FFCF77
:100590000E94FC0208F481E008950E94280388F07C
:1005A0009F5798F0B92F9927B751B0F0E1F0660F37
:1005B000771F881F991F1AF0BA95C9F714C0B13078
:1005C00091F00E944203B1E008950C944203672F1A
:1005D000782F8827B85F39F0B93FCCF386957795A7
:1005E0006795B395D9F73EF4909580957095619590
:1005F0007F4F8F4F9F4F0895990F0008550FAA0BFB
:10060000E0E8FEEF16161706E807F907C0F0121625
:100610001306E407F50798F0621B730B840B950B28
:1006200039F40A2661F0232B242B252B21F408957D
:100630000A2609F4A140A6958FEF811D811D08951A
:1006400057FD9058440F551F59F05F3F71F0479583
:10065000880F97FB991F61F09F3F79F08795089568
:10066000121613061406551FF2CF4695F1DF08C087
:10067000161617061806991FF1CF869571056105A4
:1006800008940895E894BB2766277727CB0197F94C
:1006900008950E94FC0208F48FEF08950E94610300
:1006A0000C94D2030E94C40338F00E94CB0320F0C4
:1006B000952311F00C94BB030C94C10311240C94EA
:1006C00043030E94200370F3959FC1F3950F50E000
:1006D000551F629FF001729FBB27F00DB11D639FF4
:1006E000AA27F00DB11DAA1F649F6627B00DA11D9A
:1006F000661F829F2227B00DA11D621F739FB00D40
:10070000A11D621F839FA00D611D221F749F3327AF
:10071000A00D611D231F849F600D211D822F762F48
:100720006A2F11249F5750409AF0F1F088234AF025
:10073000EE0FFF1FBB1F661F771F881F9150504091
:10074000A9F79E3F510580F00C94BB030C94430322
:100750005F3FE4F3983ED4F3869577956795B79518
:10076000F795E7959F5FC1F7FE2B880F911D969532
:10077000879597F9089597F99F6780E870E060E0A2
:1007800008959FEF80EC089500240A94161617062A
:1007900018060906089500240A9412161306140672
:1007A00005060895092E0394000C11F4882352F0D5
:1007B000BB0F40F4BF2B11F460FF04C06F5F7F4F8D
:0A07C0008F4F9F4F0895F894FFCF6C
:0807CA0048656C6C6F21000012
:00000001FF
