:100000000C942A000C9434000C9434000C943400AA
:100010000C9434000C9434000C9434000C94340090
:100020000C9434000C9434000C9434000C94340080
:100030000C9434000C9434000C9434000C94340070
:100040000C9434000C9434000C9434000C94340060
:100050000C94340011241FBECFE5D8E0DEBFCDBF25
:100060000E944C040C947D050C940000CF93DF9308
:10007000CDB7DEB7AB970FB6F894DEBF0FBECDBFDE
:100080008BA78BE390E0FC018081807F9BA59295FC
:100090009F70282F292B8BE390E0FC01208388E3BD
:1000A00090E0FC01208188E390E02E7FFC0120831A
:1000B00088E390E0FC01208188E390E02260FC016D
:1000C000208380E090E0A0E8BFE38D8F9E8FAF8F0C
:1000D000B8A320E030E04AE753E46D8D7E8D8F8D2C
:1000E00098A10E94E804DC01CB0189A39AA3ABA3E9
:1000F000BCA320E030E040E85FE369A17AA18BA1D6
:100100009CA10E94620488232CF481E090E09EA3CD
:100110008DA33FC020E03FEF4FE757E469A17AA1EC
:100120008BA19CA10E94E30418164CF520E030E05E
:1001300040E251E46D8D7E8D8F8D98A10E94E80480
:10014000DC01CB01BC01CD010E946704DC01CB01C5
:100150009EA38DA30FC089E190E098A78FA38FA1E4
:1001600098A50197F1F798A78FA38DA19EA101975C
:100170009EA38DA38DA19EA1892B69F714C069A1AF
:100180007AA18BA19CA10E946704DC01CB019EA3F4
:100190008DA38DA19EA19AA789A789A59AA501974C
:1001A000F1F79AA789A788E390E0FC01208188E312
:1001B00090E02D7FFC0120838BE390E0FC018081A7
:1001C000982F907F8BA58F70292F282B8BE390E0A1
:1001D000FC01208388E390E0FC01208188E390E02B
:1001E0002E7FFC01208388E390E0FC01208188E3DE
:1001F00090E02260FC01208380E090E0A0E8BFE373
:100200008F87988BA98BBA8B20E030E04AE753E4C4
:100210006F85788989899A890E94E804DC01CB017D
:100220008B8B9C8BAD8BBE8B20E030E040E85FE396
:100230006B897C898D899E890E94620488232CF4B5
:1002400081E090E0988F8F8B3FC020E03FEF4FE739
:1002500057E46B897C898D899E890E94E304181676
:100260004CF520E030E040E251E46F8578898989DF
:100270009A890E94E804DC01CB01BC01CD010E94F7
:100280006704DC01CB01988F8F8B0FC089E190E070
:100290009A8F898F898D9A8D0197F1F79A8F898F1F
:1002A0008F89988D0197988F8F8B8F89988D892B47
:1002B00069F714C06B897C898D899E890E946704C7
:1002C000DC01CB01988F8F8B8F89988D9C8F8B8FC2
:1002D0008B8D9C8D0197F1F79C8F8B8F88E390E03D
:1002E000FC01208188E390E02D7FFC01208380E0E9
:1002F00090E0A0E0B0E489839A83AB83BC8320E0E4
:1003000030E04AE753E469817A818B819C810E94C5
:10031000E804DC01CB018D839E83AF83B88720E0A6
:1003200030E040E85FE36D817E818F8198850E9497
:10033000620488232CF481E090E09A8789873FC08B
:1003400020E03FEF4FE757E46D817E818F819885F4
:100350000E94E30418164CF520E030E040E251E43E
:1003600069817A818B819C810E94E804DC01CB0148
:10037000BC01CD010E946704DC01CB019A8789870B
:100380000FC089E190E09C878B878B859C850197C6
:10039000F1F79C878B8789859A8501979A8789874A
:1003A00089859A85892B69F714C06D817E818F813B
:1003B00098850E946704DC01CB019A87898789852B
:1003C0009A859E878D878D859E850197F1F79E87FB
:1003D0008D870000AB960FB6F894DEBF0FBECDBF81
:1003E000DF91CF910895CF93DF93CDB7DEB7AB9771
:1003F0000FB6F894DEBF0FBECDBF8BA78BE390E0A6
:10040000FC018081807F9BA592959F70282F292BCE
:100410008BE390E0FC01208388E390E0FC012081E5
:1004200088E390E02160FC01208388E390E0FC01F8
:10043000208188E390E02260FC01208380E090E04E
:10044000A0E8BFE38D8F9E8FAF8FB8A320E030E090
:100450004AE753E46D8D7E8D8F8D98A10E94E8044C
:10046000DC01CB0189A39AA3ABA3BCA320E030E0BD
:1004700040E85FE369A17AA18BA19CA10E9462047C
:1004800088232CF481E090E09EA38DA33FC020E060
:100490003FEF4FE757E469A17AA18BA19CA10E948D
:1004A000E30418164CF520E030E040E251E46D8D95
:1004B0007E8D8F8D98A10E94E804DC01CB01BC01E8
:1004C000CD010E946704DC01CB019EA38DA30FC068
:1004D00089E190E098A78FA38FA198A50197F1F7E4
:1004E00098A78FA38DA19EA101979EA38DA38DA1F7
:1004F0009EA1892B69F714C069A17AA18BA19CA147
:100500000E946704DC01CB019EA38DA38DA19EA157
:100510009AA789A789A59AA50197F1F79AA789A70C
:1005200088E390E0FC01208188E390E02D7FFC01CE
:1005300020838BE390E0FC018081982F907F8BA536
:100540008F70292F282B8BE390E0FC01208388E318
:1005500090E0FC01208188E390E02160FC01208391
:1005600088E390E0FC01208188E390E02260FC01B8
:10057000208380E090E0A0E8BFE38F87988BA98B71
:10058000BA8B20E030E04AE753E46F8578898989A7
:100590009A890E94E804DC01CB018B8B9C8BAD8B8C
:1005A000BE8B20E030E040E85FE36B897C898D8979
:1005B0009E890E94620488232CF481E090E0988F49
:1005C0008F8B3FC020E03FEF4FE757E46B897C897A
:1005D0008D899E890E94E30418164CF520E030E0D6
:1005E00040E251E46F85788989899A890E94E804FC
:1005F000DC01CB01BC01CD010E946704DC01CB0111
:10060000988F8F8B0FC089E190E09A8F898F898DA9
:100610009A8D0197F1F79A8F898F8F89988D01971D
:10062000988F8F8B8F89988D892B69F714C06B8970
:100630007C898D899E890E946704DC01CB01988F9B
:100640008F8B8F89988D9C8F8B8F8B8D9C8D019735
:10065000F1F79C8F8B8F88E390E0FC01208188E389
:1006600090E02D7FFC01208380E090E0A0E0B0E4EA
:1006700089839A83AB83BC8320E030E04AE753E46C
:1006800069817A818B819C810E94E804DC01CB0125
:100690008D839E83AF83B88720E030E040E85FE33E
:1006A0006D817E818F8198850E94620488232CF45D
:1006B00081E090E09A8789873FC020E03FEF4FE7D5
:1006C00057E46D817E818F8198850E94E30418161E
:1006D0004CF520E030E040E251E469817A818B8181
:1006E0009C810E94E804DC01CB01BC01CD010E9489
:1006F0006704DC01CB019A8789870FC089E190E00C
:100700009C878B878B859C850197F1F79C878B87CE
:1007100089859A8501979A87898789859A85892B02
:1007200069F714C06D817E818F8198850E9467046E
:10073000DC01CB019A87898789859A859E878D8779
:100740008D859E850197F1F79E878D870000AB967A
:100750000FB6F894DEBF0FBECDBFDF91CF910895E5
:10076000CF93DF93CDB7DEB72E970FB6F894DEBFE9
:100770000FBECDBF8AE390E02FE0FC01208387E32A
:1007800090E023E0FC01208380E090E0A0EAB1E467
:1007900089839A83AB83BC8320E030E04AE753E44B
:1007A00069817A818B819C810E94E804DC01CB0104
:1007B0008D839E83AF83B88720E030E040E85FE31D
:1007C0006D817E818F8198850E94620488232CF43C
:1007D00081E090E09A8789873FC020E03FEF4FE7B4
:1007E00057E46D817E818F8198850E94E3041816FD
:1007F0004CF520E030E040E251E469817A818B8160
:100800009C810E94E804DC01CB01BC01CD010E9467
:100810006704DC01CB019A8789870FC089E190E0EA
:100820009C878B878B859C850197F1F79C878B87AD
:1008300089859A8501979A87898789859A85892BE1
:1008400069F714C06D817E818F8198850E9467044D
:10085000DC01CB019A87898789859A859E878D8758
:100860008D859E850197F1F79E878D8788E20E948E
:1008700036008CE00E94360086E00E94360081E05F
:100880000E94360000002E960FB6F894DEBF0FBE11
:10089000CDBFDF91CF910895CF93DF93CDB7DEB772
:1008A0000E94B00388E40E94F30185E40E94F301F2
:1008B0008CE40E94F3018CE40E94F3018FE40E9417
:1008C000F301FFCF0E94960408F481E008950E948E
:1008D000C20488F09F5798F0B92F9927B751B0F00C
:1008E000E1F0660F771F881F991F1AF0BA95C9F7B4
:1008F00014C0B13091F00E94DC04B1E008950C9472
:10090000DC04672F782F8827B85F39F0B93FCCF324
:10091000869577956795B395D9F73EF49095809530
:10092000709561957F4F8F4F9F4F0895990F0008E5
:10093000550FAA0BE0E8FEEF16161706E807F907B1
:10094000C0F012161306E407F50798F0621B730B4C
:10095000840B950B39F40A2661F0232B242B252BCD
:1009600021F408950A2609F4A140A6958FEF811D70
:10097000811D089557FD9058440F551F59F05F3F52
:1009800071F04795880F97FB991F61F09F3F79F0B1
:1009900087950895121613061406551FF2CF469533
:1009A000F1DF08C0161617061806991FF1CF8695B5
:1009B0007105610508940895E894BB276627772799
:1009C000CB0197F908950E94960408F48FEF0895DB
:1009D0000E94FB040C946C050E945E0538F00E9496
:1009E000650520F0952311F00C9455050C945B05DA
:1009F00011240C94DD040E94BA0470F3959FC1F396
:100A0000950F50E0551F629FF001729FBB27F00DBC
:100A1000B11D639FAA27F00DB11DAA1F649F662711
:100A2000B00DA11D661F829F2227B00DA11D621F60
:100A3000739FB00DA11D621F839FA00D611D221F1A
:100A4000749F3327A00D611D231F849F600D211DFE
:100A5000822F762F6A2F11249F5750409AF0F1F081
:100A600088234AF0EE0FFF1FBB1F661F771F881FEA
:100A700091505040A9F79E3F510580F00C945505C8
:100A80000C94DD045F3FE4F3983ED4F386957795AC
:100A90006795B795F795E7959F5FC1F7FE2B880F90
:100AA000911D9695879597F9089597F99F6780E826
:100AB00070E060E008959FEF80EC089500240A94B0
:100AC0001616170618060906089500240A94121629
:100AD0001306140605060895092E0394000C11F45C
:100AE000882352F0BB0F40F4BF2B11F460FF04C009
:0E0AF0006F5F7F4F8F4F9F4F0895F894FFCF99
:00000001FF
